S00F00006D61696E6370702E737265632D
S113000012C024C023C022C021C020C01FC01EC0F3
S11300101DC01CC01BC01AC019C018C017C016C010
S113002015C014C013C011241FBECFE5D4E0DEBF39
S1130030CDBF10E0A0E6B0E0E0E7F5E002C0059037
S11300400D92AA36B107D9F702D090C2D9CFCF9377
S1130050DF93CDB7DEB729970FB6F894DEBF0FBE96
S1130060CDBF8C9A949A2FE38DE093E02150804089
S11300709040E1F700C0000094982FE38DE093E0F6
S1130080215080409040E1F700C00000949A2FE393
S11300908DE093E0215080409040E1F700C00000E3
S11300A094982FE38DE093E0215080409040E1F755
S11300B000C00000949A2FE38DE093E0215080402B
S11300C09040E1F700C0000094982FE38DE093E0A6
S11300D0215080409040E1F700C00000949A2FE343
S11300E08DE093E0215080409040E1F700C0000093
S11300F094982FE38DE093E0215080409040E1F705
S113010000C000007ED189E0E0E6F0E0DE01119657
S113011001900D928A95E1F709811A812B813C8126
S11301204D815E816F8178858985B9D0829903C0BC
S11301308C9A949AFBCF8C9A9498F8CF0F931F9330
S1130140CF93DF93CDB7DEB729970FB6F894DEBF10
S11301500FBECDBF2B833C834D835E836F83788733
S11301608987B4D180EDC5D180E0BCD18B81BAD16F
S11301708C81B8D18D81B6D18E81B4D18F81B2D129
S11301808885B0D18985AED129960FB6F894DEBFA3
S11301900FBECDBFDF91CF911F910F919DC1CF9322
S11301A0DF93EC0193D180EDA4D180E09BD18ED17B
S11301B081ED9FD19FD18A839DD18B839BD18C83E9
S11301C099D18D8397D18E8395D18F839AD1888746
S11301D083D1CE01DF91CF910895CF9377D180ED74
S11301E088D180E07FD172D181ED83D18AD1C82FAB
S11301F073D181E0C03809F080E0CF9108956AE0BE
S113020087D120E1829F900D1124892F08959F9218
S1130210AF92BF92CF92DF92EF92FF920F931F9310
S1130220CF93DF93CDB7DEB729970FB6F894DEBF2F
S11302300FBECDBF7C01802F922EA32EB42EC52ECF
S1130240D62EDDDFF7018283812FD9DFF701838387
S1130250892DD5DFF70184838A2DD1DFF7018583CA
S11302608B2DCDDFF70186838C2DC9DFF7018783C2
S11302708D2DC5DFF7018087C70129960FB6F89445
S1130280DEBF0FBECDBFDF91CF911F910F91FF90C5
S1130290EF90DF90CF90BF90AF909F900895EF9232
S11302A0FF920F931F93CF93DF93CDB7DEB762977F
S11302B00FB6F894DEBF0FBECDBF780189019A0155
S11302C0AB01682FCE010196A2DF09811A812B812F
S11302D03C814D815E816F81788589852FDF6296AF
S11302E00FB6F894DEBF0FBECDBFDF91CF911F9143
S11302F00F91FF90EF900895382F3F70982F9695A7
S1130300969596959E71292F220F220F892F820F81
S1130310830F08959F92AF92BF92CF92DF92EF9294
S1130320FF920F931F93CF93DF93CDB7DEB7299737
S11303300FB6F894DEBF0FBECDBF7C01802F922E86
S1130340A32EB42EC52ED62ED7DFF7018283812F9C
S1130350D3DFF7018383892DCFDFF70184838A2DCF
S1130360CBDFF70185838B2DC7DFF70186838C2DC7
S1130370C3DFF70187838D2DBFDFF7018087C701B6
S113038029960FB6F894DEBF0FBECDBFDF91CF9193
S11303901F910F91FF90EF90DF90CF90BF90AF909F
S11303A09F900895CF92DF92EF92FF920F931F9345
S11303B0CF93DF93CDB7DEB729970FB6F894DEBF9E
S11303C00FBECDBF6C01CE010196E9DEE980FA8053
S11303D00B811C812D813E814F8158856985C60121
S11303E099DFC60129960FB6F894DEBF0FBECDBFC4
S11303F0DF91CF911F910F91FF90EF90DF90CF90FD
S113040008950F931F93CF93DF93CDB7DEB729974A
S11304100FB6F894DEBF0FBECDBFAD9AAC9A60E8BC
S11304207AE186E090E02AD0D8DE882369F0CE0114
S11304300196B8DF09811A812B813C814D815E814F
S11304406F81788589852BDF41D080ED52D087E09C
S113045049D080E147D040D0929A85B7836085BF68
S11304608BB780648BBF29960FB6F894DEBF0FBE9E
S1130470CDBFDF91CF911F910F9108959B01AC01E6
S113048084E486BF60E177E280E090E04DD0DA0159
S1130490C9014097A109B109B695A7959795879584
S11304A020E08F3F9105A105B10551F048F02F5F81
S11304B032E0B695A795979587953A95D1F7F1CF00
S11304C031B13370232B21B980B9089584EA86BFF2
S11304D006B607FEFDCF089584E986BF06B604FC80
S11304E0FDCF089583B984E886BF06B607FEFDCF25
S11304F00895F8CF84EC86BF06B607FEFDCF83B11E
S1130500089584E886BF06B607FEFDCF83B108953B
S1130510991B79E004C0991F961708F0961B881F51
S11305207A95C9F780950895A1E21A2EAA1BBB1BE0
S1130530FD010DC0AA1FBB1FEE1FFF1FA217B307AB
S1130540E407F50720F0A21BB30BE40BF50B661FC1
S1130550771F881F991F1A9469F760957095809585
S113056090959B01AC01BD01CF010895F894FFCF94
S10D0570000000280F020901120028
S9030000FC
