S00C00006D61696E2E7372656373
S113000012C02CC02BC02AC029C028C027C026C0BB
S113001025C024C023C09AC0C1C020C01FC01EC0B8
S11300201DC01CC01BC011241FBECFE5D4E0DEBF21
S1130030CDBF11E0A0E6B0E0E0E3F1E102C005903D
S11300400D92A435B107D9F722E0A4E5B1E001C0CF
S11300501D92A839B207E1F734D668C8D0C082E14E
S113006081BB82E087BB949A2FED83E994E0215011
S113007080409040E1F700C0000094982FED83E9A0
S113008094E0215080409040E1F700C00000949A31
S11300902FED83E994E0215080409040E1F700C0C7
S11300A0000094982FED83E994E021508040904023
S11300B0E1F700C00000949A2FED83E994E0215009
S11300C080409040E1F700C0000094982FED83E950
S11300D094E0215080409040E1F700C00000089572
S11300E0949A28EE33E080914D0190914E011816B8
S11300F0190614F4C19A01C0C19880914D019091E0
S11301004E0140914B0150914C01841B950B883159
S11301104CEF940729F090934E0180934D0104C055
S113012030934E0120934D01B699DDCF8599DBCFF5
S11301308799D9CF9498C198089510BC8CE089B957
S1130140599A86E880BD88E98AB908951F920F926A
S11301500FB60F9211242F938F939F93EF93FF93D6
S11301602CB12A3021F481E080931E020DC08091CD
S1130170650290916602FC01E15EFD4F20830196C9
S11301809093660280936502FF91EF919F918F9106
S11301902F910F900FBE0F901F9018951F920F92E2
S11301A00FB60F9211242F933F938F939F93EF9346
S11301B0FF93E0911C02F0911D02EC5AFE4F8081E6
S11301C0882389F080911C0290911D029C012F5F6D
S11301D03F4F30931D0220931C02FC01EC5AFE4F4A
S11301E080818CB901C05598FF91EF919F918F91B7
S11301F03F912F910F900FBE0F901F9018951F9253
S11302000F920FB60F9211240F900FBE0F901F90F4
S11302101895E0918D02F0918E0240918B025091DD
S11302208C02E130F105F1F58CE480935401A0E2F5
S1130230A093550180917D022AE0622F42D7805D10
S113024080935601905D909357013AE3309358019F
S113025080917C0236D7805D80935901905D9093A4
S11302605A01A0935B01809186022BD7805D809315
S11302705C01905D90935D0130935E0180918502F5
S113028020D7805D80935F01905D90936001413041
S1130290510559F48DE080936101209362012FE0B0
S11302A030E005C020E030E002C02DE030E0413015
S11302B0510561F5F901EC5AFE4F82E58083A0E215
S11302C0A18380916B024AE0642FFBD6805D828318
S11302D0905D93835AE3548380916A02F2D6805DE1
S11302E08583905D9683A78380917402EAD6805DAE
S11302F08087905D9187528780917302E2D6805DFA
S11303008387905D9487235F3F4F0AC0EF2B41F4AE
S1130310452B31F46CE371E084E591E000D708C02B
S1130320F901EC5AFE4F8DE080838AE081831282CA
S11303305D9BFECF10921D0210921C02559A0895E7
S113034060E670E084E591E0EAD65D9BFECF109212
S11303501D0210921C02559A089562E371E084E52F
S113036091E0DDD65D9BFECF10921D0210921C021F
S1130370559A089568E271E084E591E0D0D65D9BDA
S1130380FECF10921D0210921C02559A0895CF932D
S1130390DF93CDB7DEB729970FB6F894DEBF0FBE53
S11303A0CDBFCE010196D7D589E0FE013196AFE8E5
S11303B0B2E001900D928A95E1F7809193022AE0D0
S11303C0622F7FD6805D80935401905D9093550198
S11303D08AE3809356018091920273D6805D809364
S11303E05701905D909358018DE0809359012093BB
S11303F05A0110925B015D9BFECF10921D02109278
S11304001C02559A29960FB6F894DEBF0FBECDBFD5
S1130410DF91CF910895FC019F01281B390B26170A
S1130420370714F41192F8CF0895EF92FF920F93C7
S11304301F93CF93DF938C01DC01ED91FC91E15E7E
S1130440FD4F8081833709F069C081818C3609F0C2
S113045065C0838190E0C0973AE0389FA001399F3E
S1130460500D11248481A82FB0E0D097A40FB51F9C
S1130470A831B10508F052C0868190E0C097389F3A
S1130480A001399F500D11248781682F70E06053BB
S11304907109640F751F6C33710508F03FC08185C5
S11304A090E0C097389FE001399FD00D11248285D8
S11304B0482F50E0405351094C0F5D1F48315105FE
S11304C068F5C485D0E0E0973C9F70013D9FF00C37
S11304D011249585292F30E0205331092E0D3F1D1D
S11304E02C333105D8F4A0937D0260937C024093B1
S11304F0860220938502F801808191810D96918373
S1130500808381E090E090938E0280938D02DF914E
S1130510CF911F910F91FF90EF901FCFDF91CF915B
S11305201F910F91FF90EF900895EF92FF920F9318
S11305301F93CF93DF938C01DC01ED91FC91E15E7D
S1130540FD4F8081833709F069C08181823709F0CA
S113055065C0838190E0C0973AE0389FA001399F3D
S1130560500D11248481A82FB0E0D097A40FB51F9B
S1130570A831B10508F052C0868190E0C097389F39
S1130580A001399F500D11248781682F70E06053BA
S11305907109640F751F6C33710508F03FC08185C4
S11305A090E0C097389FE001399FD00D11248285D7
S11305B0482F50E0405351094C0F5D1F48315105FD
S11305C068F5C485D0E0E0973C9F70013D9FF00C36
S11305D011249585292F30E0205331092E0D3F1D1C
S11305E02C333105D8F4A0936B0260936A024093D4
S11305F0740220937302F801808191810D96918396
S1130600808381E090E090938C0280938B02DF9151
S1130610CF911F910F91FF90EF90ACCEDF91CF91CE
S11306201F910F91FF90EF900895DC01ED91FC91E3
S11306301197E15EFD4F80818336E1F4818181363B
S1130640C9F410928E0210928D0281E090E0909392
S113065052018093510110928C0210928B0290935C
S1130660500180934F018D919C91119701968D9328
S11306709C93CFCD0895DC01ED91FC911197E15E3F
S1130680FD4F80818336A1F481818C3689F41092E8
S11306908E0210928D0281E090E09093520180933B
S11306A051018D919C91119701968D939C93B1CD9D
S11306B00895DC01ED91FC911197E15EFD4F80817D
S11306C08336A1F48181823789F410928C021092CE
S11306D08B0281E090E09093500180934F018D91C3
S11306E09C91119701968D939C9393CD0895FC0151
S11306F020813181F901E15EFD4F4081443791F45D
S11307004181493679F442814D3661F42D5F3F4F82
S1130710F901E15EFD4F4081453621F4FC0131834E
S1130720208335CE0895FF920F931F93CF93DF93C9
S1130730FC01A081B181A15EBD4F8C91833709F08A
S1130740ACC011968C911197843709F0A6C013960A
S11307502C911397220F2056822F880F880F280F71
S113076014968C918053280F20939102A081B1811B
S1130770A15EBD4F16963C911697330F3056832FCA
S1130780880F880F380F17968C918053380F309349
S11307909202A081B181A15EBD4F19964C91199727
S11307A0440F4056842F880F880F480F1A968C9157
S11307B08053480F40939302A081B181A15EBD4F45
S11307C01C968C911C97880F8056C82FCC0FCC0F89
S11307D08C0F1D96CC91FC2EF80E50ED5F0D5093AE
S11307E0940280819181815E9D4FDC011F966C9102
S11307F0B62FBB0FB0566B2F660F660F6B0FEC0155
S11308008889B62FB80F60ED6B0F609395028081D5
S11308109181815E9D4FEC01AA89AA0FA0567A2F7F
S1130820770F770FA70F8B89A80F70ED7A0F70934E
S1130830960200811181015E1D4FE8018D89880FA8
S11308408056982F990F990F890F9E899053890F7D
S1130850809397022C3308F53C33F8F44831E8F4DC
S1130860CFECCF0DC730C8F4B153BF31B0F4A153AE
S1130870AC3098F4893C88F4EF0100918F02109118
S11308809002E6D288819981469699838883DF9184
S1130890CF911F910F91FF907ACDDF91CF911F914E
S11308A00F91FF900895FC0120813181F901E15EEF
S11308B0FD4F4081483691F44181453679F44281B7
S11308C04C3661F42D5F3F4FF901E15EFD4F4081ED
S11308D0403721F4FC013183208332CD0895FC019B
S11308E020813181F901E15EFD4F4081433761F49C
S11308F02F5F3F4FF901E15EFD4F4081413621F406
S1130900FC013183208385CC0895CF93DF9300D0FD
S1130910CDB7DEB71A82198289819A812091650246
S113092030916602821793073CF5FC01E15EFD4FAE
S11309308081882309F1CE010196B5DFCE010196AD
S113094074DDCE010196F1DDCE0101966EDECE019D
S1130950019691DECE010196ACDECE010196C7DE92
S1130960CE010196E0DECE010196B9DF89819A813C
S113097001969A838983D0CF0F900F90DF91CF9106
S113098008950F931F93CF93DF93CDB7DEB762978C
S11309900FB6F894DEBF0FBECDBF09831A832B8335
S11309A03C834D835E836F8378878987CE010A9663
S11309B0D2D289E0FE013A96AFE8B2E001900D92FE
S11309C08A95E1F78D819D8D891730F0891329C0AF
S11309D03C812C8D321728F5209193022817B8F00A
S11309E02917B8F4821728F4EAA1FBA11182108216
S11309F043C0821341C09C81809192028917A0F761
S1130A0081E090E0EAA1FBA19183808335C029179E
S1130A10B8F39213F5CF909192028C8D981720F32E
S1130A20EFCF20918602821304C03C812C8D3217B3
S1130A30D9F2981730F089131FC03C812C8D2317ED
S1130A40D8F420919302291760F0281768F49217BC
S1130A50B8F2921311C09C8D80919202891720F2F2
S1130A60CFCF281708F4C0CF8213BECF9091920243
S1130A708C81981728F2B8CF62960FB6F894DEBF2F
S1130A800FBECDBFDF91CF911F910F9108950F93AA
S1130A901F938FE491E09F938F938DB79EB709972F
S1130AA00FB6F8949EBF0FBE8DBFADB7BEB71196FB
S1130AB089E0E0E7F2E001900D928A95E1F7009178
S1130AC06702109168022091690230916A02409194
S1130AD06B0250916C0260916D0270916E02809174
S1130AE06F024FDF8DB79EB70B960FB6F8949EBF7B
S1130AF00FBE8DBF80914F0190915001892B11F051
S1130B00839902C0829B03C01F910F91E9CA1F9170
S1130B100F9108950F931F9381E591E09F938F9315
S1130B208DB79EB709970FB6F8949EBF0FBE8DBFC1
S1130B30ADB7BEB7119689E0E2E8F2E001900D92FC
S1130B408A95E1F70091790210917A0220917B0253
S1130B5030917C0240917D0250917E0260917F022F
S1130B6070918002809181020CDF8DB79EB70B9645
S1130B700FB6F8949EBF0FBE8DBF80915101909126
S1130B805201892B11F0829902C0839B03C01F91EB
S1130B900F91A6CA1F910F9108950F931F938FE48D
S1130BA091E09F938F938DB79EB709970FB6F894F2
S1130BB09EBF0FBE8DBFADB7BEB7119689E0E0E70B
S1130BC0F2E001900D928A95E1F70091670210918D
S1130BD068022091690230916A0240916B0250913F
S1130BE06C0260916D0270916E0280916F02C9DE99
S1130BF081E591E09F938F938DB79EB709970FB6C8
S1130C00F8949EBF0FBE8DBFADB7BEB7119689E0F5
S1130C10E2E8F2E001900D928A95E1F70091790201
S1130C2010917A0220917B0230917C0240917D02E6
S1130C3050917E0260917F027091800280918102C6
S1130C40A0DE8DB79EB746960FB6F8949EBF0FBE32
S1130C508DBF8091510190915201892B11F082999D
S1130C6008C080914F0190915001892B29F0839BFA
S1130C7003C01F910F9134CA1F910F910895829957
S1130C8001C083992DCA089580918D0290918E029E
S1130C90009739F480918B0290918C02009751F463
S1130CA0EECF019769F480918B0290918C020097AA
S1130CB021F430CF019721F4EACE019709F46DCFE6
S1130CC00895CDD977D139DA789480911E0288239A
S1130CD061F01BDE10921E021092660210926502F1
S1130CE066E470E08FE192E096DBCEDFEECF0F9307
S1130CF01F93CF93DF93CDB7DEB729970FB6F89440
S1130D00DEBF0FBECDBF2B833C834D835E836F83D9
S1130D1078878987B4D180EDC5D180E0BCD18B813F
S1130D20BAD18C81B8D18D81B6D18E81B4D18F8165
S1130D30B2D18885B0D18985AED129960FB6F89401
S1130D40DEBF0FBECDBFDF91CF911F910F919DC12B
S1130D50CF93DF93EC0193D180EDA4D180E09BD1BC
S1130D608ED181ED9FD19FD18A839DD18B839BD1DD
S1130D708C8399D18D8397D18E8395D18F839AD18A
S1130D80888783D1CE01DF91CF910895CF9377D116
S1130D9080ED88D180E07FD172D181ED83D18AD179
S1130DA0C82F73D181E0C03809F080E0CF91089555
S1130DB06AE087D120E1829F900D1124892F089544
S1130DC09F92AF92BF92CF92DF92EF92FF920F93D6
S1130DD01F93CF93DF93CDB7DEB729970FB6F8945F
S1130DE0DEBF0FBECDBF7C01802F922EA32EB42E6A
S1130DF0C52ED62EDDDFF7018283812FD9DFF701DF
S1130E008383892DD5DFF70184838A2DD1DFF70110
S1130E1085838B2DCDDFF70186838C2DC9DFF70108
S1130E2087838D2DC5DFF7018087C70129960FB60B
S1130E30F894DEBF0FBECDBFDF91CF911F910F910C
S1130E40FF90EF90DF90CF90BF90AF909F90089568
S1130E50EF92FF920F931F93CF93DF93CDB7DEB73B
S1130E6062970FB6F894DEBF0FBECDBF780189013B
S1130E709A01AB01682FCE010196A2DF09811A8184
S1130E802B813C814D815E816F81788589852FDF3F
S1130E9062960FB6F894DEBF0FBECDBFDF91CF913F
S1130EA01F910F91FF90EF900895382F3F70982F66
S1130EB09695969596959E71292F220F220F892F2C
S1130EC0820F830F08959F92AF92BF92CF92DF92C9
S1130ED0EF92FF920F931F93CF93DF93CDB7DEB7BB
S1130EE029970FB6F894DEBF0FBECDBF7C01802FCB
S1130EF0922EA32EB42EC52ED62ED7DFF7018283D1
S1130F00812FD3DFF7018383892DCFDFF70184831A
S1130F108A2DCBDFF70185838B2DC7DFF70186830D
S1130F208C2DC3DFF70187838D2DBFDFF701808709
S1130F30C70129960FB6F894DEBF0FBECDBFDF916F
S1130F40CF911F910F91FF90EF90DF90CF90BF90C2
S1130F50AF909F900895CF92DF92EF92FF920F93FC
S1130F601F93CF93DF93CDB7DEB729970FB6F894CD
S1130F70DEBF0FBECDBF6C01CE010196E9DEE98074
S1130F80FA800B811C812D813E814F8158856985B2
S1130F90C60199DFC60129960FB6F894DEBF0FBECD
S1130FA0CDBFDF91CF911F910F91FF90EF90DF9014
S1130FB0CF9008950F931F93CF93DF93CDB7DEB7F0
S1130FC029970FB6F894DEBF0FBECDBFAD9AAC9A89
S1130FD060E87AE186E090E02AD0D8DE882369F0E0
S1130FE0CE010196B8DF09811A812B813C814D81A4
S1130FF05E816F81788589852BDF41D080ED52D069
S113100087E049D080E147D040D0929A85B7836089
S113101085BF8BB780648BBF29960FB6F894DEBF6B
S11310200FBECDBFDF91CF911F910F9108959B010A
S1131030AC0184E486BF60E177E280E090E04DD0CB
S1131040DA01C9014097A109B109B695A795979509
S1131050879520E08F3F9105A105B10551F048F037
S11310602F5F32E0B695A795979587953A95D1F776
S1131070F1CF31B13370232B21B980B9089584EABB
S113108086BF06B607FEFDCF089584E986BF06B67F
S113109004FCFDCF089583B984E886BF06B607FE35
S11310A0FDCF0895F8CF84EC86BF06B607FEFDCFCA
S11310B083B1089584E886BF06B607FEFDCF83B1E9
S11310C00895991B79E004C0991F961708F0961BA0
S11310D0881F7A95C9F780950895A1E21A2EAA1B54
S11310E0BB1BFD010DC0AA1FBB1FEE1FFF1FA217D4
S11310F0B307E407F50720F0A21BB30BE40BF50BD1
S1131100661F771F881F991F1A9469F76095709559
S1131110809590959B01AC01BD01CF010895FB0121
S1131120DC0101900D920020E1F70895F894FFCFBF
S11311306361202D20636C65617220616C6C206199
S11311406C61726D730D0A636C207C206372202DB8
S113115020636C656172206C6566742F72696768C0
S11311607420616C61726D0D0A736C207C20737243
S11311702078783A78782079793A7979202D207313
S11311806574206C6566742F726967687420616C7D
S113119061726D0D0A74696D65202D2073686F7717
S11311A02074696D650D0A73742073733A6D6D3A1A
S11311B068682E77642E64642E6D6D2E7979202DE7
S11311C0207365742074696D6520616E64206461A8
S11311D074610D0A7361202D2073686F7720616C30
S11311E061726D730D0A0000000000000000000031
S11311F0000000000000000052204F4B0D0A0000C8
S113120000004C204F4B0D0A000000006E6F20615F
S11312106C61726D730D0A00000000F401E80301B3
S107122000010000C5
S9030000FC
