S00F00006D61696E6370702E737265632D
S113000012C019C018C017C016C015C014C013C040
S113001012C011C010C00FC00EC00DC00CC00BC068
S11300200AC009C008C011241FBECFE5D4E0DEBF5A
S1130030CDBF02D05AC0E4CF8C9A949A2FE38DE0BE
S113004093E0215080409040E1F700C00000949874
S11300502FE38DE093E0215080409040E1F700C011
S11300600000949A2FE38DE093E02150804090406B
S1130070E1F700C0000094982FE38DE093E0215055
S113008080409040E1F700C00000949A2FE38DE097
S113009093E0215080409040E1F700C00000949824
S11300A02FE38DE093E0215080409040E1F700C0C1
S11300B00000949A2FE38DE093E02150804090401B
S11300C0E1F700C0000094982FE38DE093E0215005
S11300D080409040E1F700C00000829903C08C9AF0
S11100E0949AFBCF8C9A9498F8CFF894FFCFA3
S9030000FC
